{
  "address": "0x4ce6ec617d7debc5c1cf3386e5bf0927cacfff8b",
  "abi": [
    {
      "inputs": [],
      "stateMutability": "nonpayable",
      "type": "constructor"
    },
    {
      "anonymous": false,
      "inputs": [
        {
          "indexed": true,
          "internalType": "address",
          "name": "account",
          "type": "address"
        },
        {
          "indexed": true,
          "internalType": "address",
          "name": "operator",
          "type": "address"
        },
        {
          "indexed": false,
          "internalType": "bool",
          "name": "approved",
          "type": "bool"
        }
      ],
      "name": "ApprovalForAll",
      "type": "event"
    },
    {
      "anonymous": false,
      "inputs": [
        {
          "indexed": true,
          "internalType": "address",
          "name": "operator",
          "type": "address"
        },
        {
          "indexed": true,
          "internalType": "address",
          "name": "from",
          "type": "address"
        },
        {
          "indexed": true,
          "internalType": "address",
          "name": "to",
          "type": "address"
        },
        {
          "indexed": false,
          "internalType": "uint256[]",
          "name": "ids",
          "type": "uint256[]"
        },
        {
          "indexed": false,
          "internalType": "uint256[]",
          "name": "values",
          "type": "uint256[]"
        }
      ],
      "name": "TransferBatch",
      "type": "event"
    },
    {
      "anonymous": false,
      "inputs": [
        {
          "indexed": true,
          "internalType": "address",
          "name": "operator",
          "type": "address"
        },
        {
          "indexed": true,
          "internalType": "address",
          "name": "from",
          "type": "address"
        },
        {
          "indexed": true,
          "internalType": "address",
          "name": "to",
          "type": "address"
        },
        {
          "indexed": false,
          "internalType": "uint256",
          "name": "id",
          "type": "uint256"
        },
        {
          "indexed": false,
          "internalType": "uint256",
          "name": "value",
          "type": "uint256"
        }
      ],
      "name": "TransferSingle",
      "type": "event"
    },
    {
      "anonymous": false,
      "inputs": [
        {
          "indexed": false,
          "internalType": "string",
          "name": "value",
          "type": "string"
        },
        {
          "indexed": true,
          "internalType": "uint256",
          "name": "id",
          "type": "uint256"
        }
      ],
      "name": "URI",
      "type": "event"
    },
    {
      "inputs": [
        {
          "internalType": "address",
          "name": "account",
          "type": "address"
        },
        {
          "internalType": "uint256",
          "name": "id",
          "type": "uint256"
        }
      ],
      "name": "balanceOf",
      "outputs": [
        {
          "internalType": "uint256",
          "name": "",
          "type": "uint256"
        }
      ],
      "stateMutability": "view",
      "type": "function"
    },
    {
      "inputs": [
        {
          "internalType": "address[]",
          "name": "accounts",
          "type": "address[]"
        },
        {
          "internalType": "uint256[]",
          "name": "ids",
          "type": "uint256[]"
        }
      ],
      "name": "balanceOfBatch",
      "outputs": [
        {
          "internalType": "uint256[]",
          "name": "",
          "type": "uint256[]"
        }
      ],
      "stateMutability": "view",
      "type": "function"
    },
    {
      "inputs": [
        {
          "internalType": "address",
          "name": "_player",
          "type": "address"
        }
      ],
      "name": "getCHIPSBalance",
      "outputs": [
        {
          "internalType": "uint256",
          "name": "",
          "type": "uint256"
        }
      ],
      "stateMutability": "view",
      "type": "function"
    },
    {
      "inputs": [
        {
          "internalType": "address",
          "name": "_player",
          "type": "address"
        }
      ],
      "name": "getENERGYBalance",
      "outputs": [
        {
          "internalType": "uint256",
          "name": "",
          "type": "uint256"
        }
      ],
      "stateMutability": "view",
      "type": "function"
    },
    {
      "inputs": [
        {
          "internalType": "bytes32",
          "name": "_messageHash",
          "type": "bytes32"
        }
      ],
      "name": "getEthSignedMessageHash",
      "outputs": [
        {
          "internalType": "bytes32",
          "name": "",
          "type": "bytes32"
        }
      ],
      "stateMutability": "pure",
      "type": "function"
    },
    {
      "inputs": [
        {
          "internalType": "address",
          "name": "account",
          "type": "address"
        },
        {
          "internalType": "address",
          "name": "operator",
          "type": "address"
        }
      ],
      "name": "isApprovedForAll",
      "outputs": [
        {
          "internalType": "bool",
          "name": "",
          "type": "bool"
        }
      ],
      "stateMutability": "view",
      "type": "function"
    },
    {
      "inputs": [
        {
          "internalType": "address",
          "name": "",
          "type": "address"
        }
      ],
      "name": "isRegistered",
      "outputs": [
        {
          "internalType": "bool",
          "name": "",
          "type": "bool"
        }
      ],
      "stateMutability": "view",
      "type": "function"
    },
    {
      "inputs": [
        {
          "internalType": "bytes32",
          "name": "_messageHash",
          "type": "bytes32"
        },
        {
          "internalType": "bytes",
          "name": "_signature",
          "type": "bytes"
        }
      ],
      "name": "isVerified",
      "outputs": [
        {
          "internalType": "bool",
          "name": "",
          "type": "bool"
        }
      ],
      "stateMutability": "view",
      "type": "function"
    },
    {
      "inputs": [
        {
          "internalType": "uint256",
          "name": "locationId",
          "type": "uint256"
        }
      ],
      "name": "locations",
      "outputs": [
        {
          "internalType": "address",
          "name": "registeredBy",
          "type": "address"
        },
        {
          "internalType": "uint8",
          "name": "level",
          "type": "uint8"
        },
        {
          "internalType": "string",
          "name": "placeName",
          "type": "string"
        },
        {
          "internalType": "string",
          "name": "placeType",
          "type": "string"
        },
        {
          "internalType": "enum Structs.Faction",
          "name": "faction",
          "type": "uint8"
        }
      ],
      "stateMutability": "view",
      "type": "function"
    },
    {
      "inputs": [
        {
          "internalType": "address",
          "name": "",
          "type": "address"
        }
      ],
      "name": "players",
      "outputs": [
        {
          "internalType": "uint256",
          "name": "verifiedPlaces",
          "type": "uint256"
        },
        {
          "internalType": "uint256",
          "name": "registeredPlaces",
          "type": "uint256"
        },
        {
          "internalType": "bool",
          "name": "isVerified",
          "type": "bool"
        },
        {
          "internalType": "string",
          "name": "name",
          "type": "string"
        },
        {
          "internalType": "string",
          "name": "hometown",
          "type": "string"
        },
        {
          "internalType": "enum Structs.Faction",
          "name": "faction",
          "type": "uint8"
        }
      ],
      "stateMutability": "view",
      "type": "function"
    },
    {
      "inputs": [
        {
          "internalType": "bytes32",
          "name": "_ethSignedMessageHash",
          "type": "bytes32"
        },
        {
          "internalType": "bytes",
          "name": "_signature",
          "type": "bytes"
        }
      ],
      "name": "recoverSigner",
      "outputs": [
        {
          "internalType": "address",
          "name": "",
          "type": "address"
        }
      ],
      "stateMutability": "pure",
      "type": "function"
    },
    {
      "inputs": [
        {
          "internalType": "string",
          "name": "_locationName",
          "type": "string"
        },
        {
          "internalType": "string",
          "name": "_locationType",
          "type": "string"
        },
        {
          "internalType": "string",
          "name": "_uri",
          "type": "string"
        }
      ],
      "name": "registerAndVerifyPlace",
      "outputs": [],
      "stateMutability": "payable",
      "type": "function"
    },
    {
      "inputs": [
        {
          "internalType": "string",
          "name": "_name",
          "type": "string"
        },
        {
          "internalType": "string",
          "name": "_homeTown",
          "type": "string"
        },
        {
          "internalType": "bytes32",
          "name": "_msgHash",
          "type": "bytes32"
        },
        {
          "internalType": "bytes",
          "name": "_signature",
          "type": "bytes"
        },
        {
          "internalType": "enum Structs.Faction",
          "name": "_faction",
          "type": "uint8"
        }
      ],
      "name": "registerPlayer",
      "outputs": [],
      "stateMutability": "nonpayable",
      "type": "function"
    },
    {
      "inputs": [
        {
          "internalType": "address",
          "name": "from",
          "type": "address"
        },
        {
          "internalType": "address",
          "name": "to",
          "type": "address"
        },
        {
          "internalType": "uint256[]",
          "name": "ids",
          "type": "uint256[]"
        },
        {
          "internalType": "uint256[]",
          "name": "amounts",
          "type": "uint256[]"
        },
        {
          "internalType": "bytes",
          "name": "data",
          "type": "bytes"
        }
      ],
      "name": "safeBatchTransferFrom",
      "outputs": [],
      "stateMutability": "nonpayable",
      "type": "function"
    },
    {
      "inputs": [
        {
          "internalType": "address",
          "name": "from",
          "type": "address"
        },
        {
          "internalType": "address",
          "name": "to",
          "type": "address"
        },
        {
          "internalType": "uint256",
          "name": "id",
          "type": "uint256"
        },
        {
          "internalType": "uint256",
          "name": "amount",
          "type": "uint256"
        },
        {
          "internalType": "bytes",
          "name": "data",
          "type": "bytes"
        }
      ],
      "name": "safeTransferFrom",
      "outputs": [],
      "stateMutability": "nonpayable",
      "type": "function"
    },
    {
      "inputs": [
        {
          "internalType": "address",
          "name": "operator",
          "type": "address"
        },
        {
          "internalType": "bool",
          "name": "approved",
          "type": "bool"
        }
      ],
      "name": "setApprovalForAll",
      "outputs": [],
      "stateMutability": "nonpayable",
      "type": "function"
    },
    {
      "inputs": [
        {
          "internalType": "bytes",
          "name": "sig",
          "type": "bytes"
        }
      ],
      "name": "splitSignature",
      "outputs": [
        {
          "internalType": "uint8",
          "name": "",
          "type": "uint8"
        },
        {
          "internalType": "bytes32",
          "name": "",
          "type": "bytes32"
        },
        {
          "internalType": "bytes32",
          "name": "",
          "type": "bytes32"
        }
      ],
      "stateMutability": "pure",
      "type": "function"
    },
    {
      "inputs": [
        {
          "internalType": "bytes4",
          "name": "interfaceId",
          "type": "bytes4"
        }
      ],
      "name": "supportsInterface",
      "outputs": [
        {
          "internalType": "bool",
          "name": "",
          "type": "bool"
        }
      ],
      "stateMutability": "view",
      "type": "function"
    },
    {
      "inputs": [
        {
          "internalType": "uint256",
          "name": "",
          "type": "uint256"
        }
      ],
      "name": "tokenURIs",
      "outputs": [
        {
          "internalType": "string",
          "name": "",
          "type": "string"
        }
      ],
      "stateMutability": "view",
      "type": "function"
    },
    {
      "inputs": [
        {
          "internalType": "uint256",
          "name": "_locationId",
          "type": "uint256"
        }
      ],
      "name": "upgradePlace",
      "outputs": [
        {
          "internalType": "bool",
          "name": "success",
          "type": "bool"
        }
      ],
      "stateMutability": "nonpayable",
      "type": "function"
    },
    {
      "inputs": [
        {
          "internalType": "uint256",
          "name": "",
          "type": "uint256"
        }
      ],
      "name": "uri",
      "outputs": [
        {
          "internalType": "string",
          "name": "",
          "type": "string"
        }
      ],
      "stateMutability": "view",
      "type": "function"
    }
  ],
  "transactionHash": "0x179f8bac8271352cbd4aa784b3de3c25e1a65f3a0985195132660c89a8ec60f7",
  "args": [],
  "numDeployments": 3,
  "solcInputHash": "8d5b749312fad4a9ffcc7d3d11b755cf",
  "bytecode": "0x6080604052600a6008553480156200001657600080fd5b5060408051808201909152600c81526b557262616e4f64797373657960a01b6020820152620000458162000102565b50600380546001600160a01b031916331790556040805160808101909152605080825262002bc560208301396000805260046020527f17ef568e3e12ab5b9c7254a8d58478811de00f9e6eb34345acd53bf8fd09d3ec90620000a89082620001b9565b5060405180608001604052806050815260200162002b7560509139600160005260046020527fabd6e7cb50984ff9c2f3e18a2660c3353dadf4e3291deeb275dae2cd1e44fe0590620000fb9082620001b9565b5062000285565b6002620001108282620001b9565b5050565b634e487b7160e01b600052604160045260246000fd5b600181811c908216806200013f57607f821691505b6020821081036200016057634e487b7160e01b600052602260045260246000fd5b50919050565b601f821115620001b457600081815260208120601f850160051c810160208610156200018f5750805b601f850160051c820191505b81811015620001b0578281556001016200019b565b5050505b505050565b81516001600160401b03811115620001d557620001d562000114565b620001ed81620001e684546200012a565b8462000166565b602080601f8311600181146200022557600084156200020c5750858301515b600019600386901b1c1916600185901b178555620001b0565b600085815260208120601f198616915b82811015620002565788860151825594840194600190910190840162000235565b5085821015620002755787850151600019600388901b60f8161c191681555b5050505050600190811b01905550565b6128e080620002956000396000f3fe6080604052600436106101295760003560e01c8063a7bb5803116100ab578063e985e9c51161006f578063e985e9c5146103b7578063f242432a14610400578063f5de81c314610420578063f629950a14610440578063fa54080114610453578063fda249421461047357600080fd5b8063a7bb5803146102c5578063b9e0db3514610304578063c226611b14610335578063c3c5a54714610355578063e2eb41ff1461038557600080fd5b80634e1273f4116100f25780634e1273f4146102005780636c8b703f1461022d5780637fcacc0e1461024d57806397aba7f91461026d578063a22cb465146102a557600080fd5b8062fdd58e1461012e57806301ffc9a7146101615780630e89341c146101915780632151ff62146101be5780632eb2c2d6146101e0575b600080fd5b34801561013a57600080fd5b5061014e610149366004611ce3565b610493565b6040519081526020015b60405180910390f35b34801561016d57600080fd5b5061018161017c366004611d26565b61052c565b6040519015158152602001610158565b34801561019d57600080fd5b506101b16101ac366004611d4a565b61057c565b6040516101589190611da9565b3480156101ca57600080fd5b506101de6101d9366004611e71565b610610565b005b3480156101ec57600080fd5b506101de6101fb366004611faf565b61081a565b34801561020c57600080fd5b5061022061021b366004612058565b61085f565b604051610158919061215d565b34801561023957600080fd5b506101b1610248366004611d4a565b610988565b34801561025957600080fd5b50610181610268366004612170565b610a22565b34801561027957600080fd5b5061028d610288366004612170565b610aa7565b6040516001600160a01b039091168152602001610158565b3480156102b157600080fd5b506101de6102c03660046121ac565b610b26565b3480156102d157600080fd5b506102e56102e03660046121e8565b610b35565b6040805160ff9094168452602084019290925290820152606001610158565b34801561031057600080fd5b5061032461031f366004611d4a565b610ba7565b60405161015895949392919061225c565b34801561034157600080fd5b50610181610350366004611d4a565b610cf9565b34801561036157600080fd5b506101816103703660046122b5565b60066020526000908152604090205460ff1681565b34801561039157600080fd5b506103a56103a03660046122b5565b610f44565b604051610158969594939291906122d0565b3480156103c357600080fd5b506101816103d2366004612324565b6001600160a01b03918216600090815260016020908152604080832093909416825291909152205460ff1690565b34801561040c57600080fd5b506101de61041b366004612357565b611092565b34801561042c57600080fd5b5061014e61043b3660046122b5565b6110d7565b6101de61044e3660046123bb565b6110e4565b34801561045f57600080fd5b5061014e61046e366004611d4a565b61138f565b34801561047f57600080fd5b5061014e61048e3660046122b5565b6113e2565b60006001600160a01b0383166105035760405162461bcd60e51b815260206004820152602a60248201527f455243313135353a2061646472657373207a65726f206973206e6f742061207660448201526930b634b21037bbb732b960b11b60648201526084015b60405180910390fd5b506000818152602081815260408083206001600160a01b03861684529091529020545b92915050565b60006001600160e01b03198216636cdb3d1360e11b148061055d57506001600160e01b031982166303a24d0760e21b145b8061052657506301ffc9a760e01b6001600160e01b0319831614610526565b60606002805461058b90612442565b80601f01602080910402602001604051908101604052809291908181526020018280546105b790612442565b80156106045780601f106105d957610100808354040283529160200191610604565b820191906000526020600020905b8154815290600101906020018083116105e757829003601f168201915b50505050509050919050565b3360009081526006602052604090205460ff16156106705760405162461bcd60e51b815260206004820152601d60248201527f506c6179657220697320616c726561647920726567697374657265642e00000060448201526064016104fa565b61067a8383610a22565b6106bb5760405162461bcd60e51b8152602060048201526012602482015271496e76616c69642054786e20536f7572636560701b60448201526064016104fa565b6040518060c0016040528060008152602001600081526020016001151581526020018681526020018581526020018260018111156106fb576106fb612224565b905233600090815260056020908152604091829020835181559083015160018201559082015160028201805460ff19169115159190911790556060820151600382019061074890826124c7565b506080820151600482019061075d90826124c7565b5060a082015160058201805460ff19166001838181111561078057610780612224565b021790555050336000908152600660205260408120805460ff1916600117905590508160018111156107b4576107b4612224565b036107dc576107d73360006103e8604051806020016040528060008152506113ef565b610813565b60018160018111156107f0576107f0612224565b03610813576108133360016103e8604051806020016040528060008152506113ef565b5050505050565b6001600160a01b038516331480610836575061083685336103d2565b6108525760405162461bcd60e51b81526004016104fa90612586565b6108138585858585611503565b606081518351146108c45760405162461bcd60e51b815260206004820152602960248201527f455243313135353a206163636f756e747320616e6420696473206c656e677468604482015268040dad2e6dac2e8c6d60bb1b60648201526084016104fa565b600083516001600160401b038111156108df576108df611dbc565b604051908082528060200260200182016040528015610908578160200160208202803683370190505b50905060005b84518110156109805761095385828151811061092c5761092c6125d4565b6020026020010151858381518110610946576109466125d4565b6020026020010151610493565b828281518110610965576109656125d4565b602090810291909101015261097981612600565b905061090e565b509392505050565b600460205260009081526040902080546109a190612442565b80601f01602080910402602001604051908101604052809291908181526020018280546109cd90612442565b8015610a1a5780601f106109ef57610100808354040283529160200191610a1a565b820191906000526020600020905b8154815290600101906020018083116109fd57829003601f168201915b505050505081565b600080610a2e8461138f565b90506000610a3c8285610aa7565b6003549091506001600160a01b03808316911614610a9c5760405162461bcd60e51b815260206004820152601a60248201527f556e617574686f72697a656420436f6e74726163742063616c6c00000000000060448201526064016104fa565b506001949350505050565b600080600080610ab685610b35565b6040805160008152602081018083528b905260ff8516918101919091526060810183905260808101829052929550909350915060019060a0016020604051602081039080840390855afa158015610b11573d6000803e3d6000fd5b5050604051601f190151979650505050505050565b610b313383836116e0565b5050565b60008060008351604114610b8b5760405162461bcd60e51b815260206004820152601860248201527f696e76616c6964207369676e6174757265206c656e677468000000000000000060448201526064016104fa565b5050506020810151604082015160609092015160001a92909190565b600760205260009081526040902080546001820180546001600160a01b03831693600160a01b90930460ff16929190610bdf90612442565b80601f0160208091040260200160405190810160405280929190818152602001828054610c0b90612442565b8015610c585780601f10610c2d57610100808354040283529160200191610c58565b820191906000526020600020905b815481529060010190602001808311610c3b57829003601f168201915b505050505090806002018054610c6d90612442565b80601f0160208091040260200160405190810160405280929190818152602001828054610c9990612442565b8015610ce65780601f10610cbb57610100808354040283529160200191610ce6565b820191906000526020600020905b815481529060010190602001808311610cc957829003601f168201915b5050506003909301549192505060ff1685565b3360009081526006602052604081205460ff16610d585760405162461bcd60e51b815260206004820181905260248201527f4f6e6c7920706c61796572732063616e20726567697374657220706c6163657360448201526064016104fa565b336000908152600560208190526040909120015460ff166001811115610d8057610d80612224565b60008381526007602052604090206003015460ff166001811115610da657610da6612224565b14610de65760405162461bcd60e51b815260206004820152601060248201526f08cc2c6e8d2dedc409ad2e6dac2e8c6d60831b60448201526064016104fa565b6103e86000336000908152600560208190526040909120015460ff166001811115610e1357610e13612224565b03610e775780610e24336000610493565b1015610e665760405162461bcd60e51b81526020600482015260116024820152704e6f7420656e6f75676820456e6572677960781b60448201526064016104fa565b610e72336000836117c0565b610efc565b3360009081526005602081905260408220015460ff166001811115610e9e57610e9e612224565b03610efc5780610eaf336001610493565b1015610ef05760405162461bcd60e51b815260206004820152601060248201526f4e6f7420656e6f75676820436869707360801b60448201526064016104fa565b610efc336001836117c0565b60008381526007602052604090208054601490610f2290600160a01b900460ff16612619565b91906101000a81548160ff021916908360ff1602179055506001915050919050565b60056020526000908152604090208054600182015460028301546003840180549394929360ff9092169291610f7890612442565b80601f0160208091040260200160405190810160405280929190818152602001828054610fa490612442565b8015610ff15780601f10610fc657610100808354040283529160200191610ff1565b820191906000526020600020905b815481529060010190602001808311610fd457829003601f168201915b50505050509080600401805461100690612442565b80601f016020809104026020016040519081016040528092919081815260200182805461103290612442565b801561107f5780601f106110545761010080835404028352916020019161107f565b820191906000526020600020905b81548152906001019060200180831161106257829003601f168201915b5050506005909301549192505060ff1686565b6001600160a01b0385163314806110ae57506110ae85336103d2565b6110ca5760405162461bcd60e51b81526004016104fa90612586565b610813858585858561193c565b6000610526826001610493565b3360009081526006602052604090205460ff166111435760405162461bcd60e51b815260206004820181905260248201527f4f6e6c7920706c61796572732063616e20726567697374657220706c6163657360448201526064016104fa565b60c86000336000908152600560208190526040909120015460ff16600181111561116f5761116f612224565b036111d35780611180336000610493565b10156111c25760405162461bcd60e51b81526020600482015260116024820152704e6f7420656e6f75676820456e6572677960781b60448201526064016104fa565b6111ce336000836117c0565b611258565b3360009081526005602081905260408220015460ff1660018111156111fa576111fa612224565b03611258578061120b336001610493565b101561124c5760405162461bcd60e51b815260206004820152601060248201526f4e6f7420656e6f75676820436869707360801b60448201526064016104fa565b611258336001836117c0565b6040805160a0810182523380825260006020808401829052838501899052606084018890529181526005918290529290922090910154608082019060ff1660018111156112a7576112a7612224565b9052600854600090815260076020908152604091829020835181549285015160ff16600160a01b026001600160a81b03199093166001600160a01b039091161791909117815590820151600182019061130090826124c7565b506060820151600282019061131590826124c7565b50608082015160038201805460ff19166001838181111561133857611338612224565b021790555090505060086000815461134f90612600565b91905081905550611374336008546001604051806020016040528060008152506113ef565b600854600090815260046020526040902061081383826124c7565b6040517f19457468657265756d205369676e6564204d6573736167653a0a3332000000006020820152603c8101829052600090605c01604051602081830303815290604052805190602001209050919050565b6000610526826000610493565b6001600160a01b03841661144f5760405162461bcd60e51b815260206004820152602160248201527f455243313135353a206d696e7420746f20746865207a65726f206164647265736044820152607360f81b60648201526084016104fa565b33600061145b85611a66565b9050600061146885611a66565b90506000868152602081815260408083206001600160a01b038b1684529091528120805487929061149a908490612638565b909155505060408051878152602081018790526001600160a01b03808a1692600092918716917fc3d58168c5ae7397731d063d5bbf3d657854427343f4c083240f7aacaa2d0f62910160405180910390a46114fa83600089898989611ab1565b50505050505050565b81518351146115655760405162461bcd60e51b815260206004820152602860248201527f455243313135353a2069647320616e6420616d6f756e7473206c656e677468206044820152670dad2e6dac2e8c6d60c31b60648201526084016104fa565b6001600160a01b03841661158b5760405162461bcd60e51b81526004016104fa9061264b565b3360005b84518110156116725760008582815181106115ac576115ac6125d4565b6020026020010151905060008583815181106115ca576115ca6125d4565b602090810291909101810151600084815280835260408082206001600160a01b038e16835290935291909120549091508181101561161a5760405162461bcd60e51b81526004016104fa90612690565b6000838152602081815260408083206001600160a01b038e8116855292528083208585039055908b16825281208054849290611657908490612638565b925050819055505050508061166b90612600565b905061158f565b50846001600160a01b0316866001600160a01b0316826001600160a01b03167f4a39dc06d4c0dbc64b70af90fd698a233a518aa5d07e595d983b8c0526c8f7fb87876040516116c29291906126da565b60405180910390a46116d8818787878787611c0c565b505050505050565b816001600160a01b0316836001600160a01b0316036117535760405162461bcd60e51b815260206004820152602960248201527f455243313135353a2073657474696e6720617070726f76616c20737461747573604482015268103337b91039b2b63360b91b60648201526084016104fa565b6001600160a01b03838116600081815260016020908152604080832094871680845294825291829020805460ff191686151590811790915591519182527f17307eab39ab6107e8899845ad3d59bd9653f200f220920489ca2b5937696c31910160405180910390a3505050565b6001600160a01b0383166118225760405162461bcd60e51b815260206004820152602360248201527f455243313135353a206275726e2066726f6d20746865207a65726f206164647260448201526265737360e81b60648201526084016104fa565b33600061182e84611a66565b9050600061183b84611a66565b60408051602080820183526000918290528882528181528282206001600160a01b038b16835290522054909150848110156118c45760405162461bcd60e51b8152602060048201526024808201527f455243313135353a206275726e20616d6f756e7420657863656564732062616c604482015263616e636560e01b60648201526084016104fa565b6000868152602081815260408083206001600160a01b038b81168086529184528285208a8703905582518b81529384018a90529092908816917fc3d58168c5ae7397731d063d5bbf3d657854427343f4c083240f7aacaa2d0f62910160405180910390a46040805160208101909152600090526114fa565b6001600160a01b0384166119625760405162461bcd60e51b81526004016104fa9061264b565b33600061196e85611a66565b9050600061197b85611a66565b90506000868152602081815260408083206001600160a01b038c168452909152902054858110156119be5760405162461bcd60e51b81526004016104fa90612690565b6000878152602081815260408083206001600160a01b038d8116855292528083208985039055908a168252812080548892906119fb908490612638565b909155505060408051888152602081018890526001600160a01b03808b16928c821692918816917fc3d58168c5ae7397731d063d5bbf3d657854427343f4c083240f7aacaa2d0f62910160405180910390a4611a5b848a8a8a8a8a611ab1565b505050505050505050565b60408051600180825281830190925260609160009190602080830190803683370190505090508281600081518110611aa057611aa06125d4565b602090810291909101015292915050565b6001600160a01b0384163b156116d85760405163f23a6e6160e01b81526001600160a01b0385169063f23a6e6190611af59089908990889088908890600401612708565b6020604051808303816000875af1925050508015611b30575060408051601f3d908101601f19168201909252611b2d91810190612742565b60015b611bdc57611b3c61275f565b806308c379a003611b755750611b5061277b565b80611b5b5750611b77565b8060405162461bcd60e51b81526004016104fa9190611da9565b505b60405162461bcd60e51b815260206004820152603460248201527f455243313135353a207472616e7366657220746f206e6f6e2d455243313135356044820152732932b1b2b4bb32b91034b6b83632b6b2b73a32b960611b60648201526084016104fa565b6001600160e01b0319811663f23a6e6160e01b146114fa5760405162461bcd60e51b81526004016104fa90612804565b6001600160a01b0384163b156116d85760405163bc197c8160e01b81526001600160a01b0385169063bc197c8190611c50908990899088908890889060040161284c565b6020604051808303816000875af1925050508015611c8b575060408051601f3d908101601f19168201909252611c8891810190612742565b60015b611c9757611b3c61275f565b6001600160e01b0319811663bc197c8160e01b146114fa5760405162461bcd60e51b81526004016104fa90612804565b80356001600160a01b0381168114611cde57600080fd5b919050565b60008060408385031215611cf657600080fd5b611cff83611cc7565b946020939093013593505050565b6001600160e01b031981168114611d2357600080fd5b50565b600060208284031215611d3857600080fd5b8135611d4381611d0d565b9392505050565b600060208284031215611d5c57600080fd5b5035919050565b6000815180845260005b81811015611d8957602081850181015186830182015201611d6d565b506000602082860101526020601f19601f83011685010191505092915050565b602081526000611d436020830184611d63565b634e487b7160e01b600052604160045260246000fd5b601f8201601f191681016001600160401b0381118282101715611df757611df7611dbc565b6040525050565b600082601f830112611e0f57600080fd5b81356001600160401b03811115611e2857611e28611dbc565b604051611e3f601f8301601f191660200182611dd2565b818152846020838601011115611e5457600080fd5b816020850160208301376000918101602001919091529392505050565b600080600080600060a08688031215611e8957600080fd5b85356001600160401b0380821115611ea057600080fd5b611eac89838a01611dfe565b96506020880135915080821115611ec257600080fd5b611ece89838a01611dfe565b9550604088013594506060880135915080821115611eeb57600080fd5b50611ef888828901611dfe565b925050608086013560028110611f0d57600080fd5b809150509295509295909350565b60006001600160401b03821115611f3457611f34611dbc565b5060051b60200190565b600082601f830112611f4f57600080fd5b81356020611f5c82611f1b565b604051611f698282611dd2565b83815260059390931b8501820192828101915086841115611f8957600080fd5b8286015b84811015611fa45780358352918301918301611f8d565b509695505050505050565b600080600080600060a08688031215611fc757600080fd5b611fd086611cc7565b9450611fde60208701611cc7565b935060408601356001600160401b0380821115611ffa57600080fd5b61200689838a01611f3e565b9450606088013591508082111561201c57600080fd5b61202889838a01611f3e565b9350608088013591508082111561203e57600080fd5b5061204b88828901611dfe565b9150509295509295909350565b6000806040838503121561206b57600080fd5b82356001600160401b038082111561208257600080fd5b818501915085601f83011261209657600080fd5b813560206120a382611f1b565b6040516120b08282611dd2565b83815260059390931b85018201928281019150898411156120d057600080fd5b948201945b838610156120f5576120e686611cc7565b825294820194908201906120d5565b9650508601359250508082111561210b57600080fd5b5061211885828601611f3e565b9150509250929050565b600081518084526020808501945080840160005b8381101561215257815187529582019590820190600101612136565b509495945050505050565b602081526000611d436020830184612122565b6000806040838503121561218357600080fd5b8235915060208301356001600160401b038111156121a057600080fd5b61211885828601611dfe565b600080604083850312156121bf57600080fd5b6121c883611cc7565b9150602083013580151581146121dd57600080fd5b809150509250929050565b6000602082840312156121fa57600080fd5b81356001600160401b0381111561221057600080fd5b61221c84828501611dfe565b949350505050565b634e487b7160e01b600052602160045260246000fd5b6002811061225857634e487b7160e01b600052602160045260246000fd5b9052565b6001600160a01b038616815260ff8516602082015260a06040820181905260009061228990830186611d63565b828103606084015261229b8186611d63565b9150506122ab608083018461223a565b9695505050505050565b6000602082840312156122c757600080fd5b611d4382611cc7565b868152856020820152841515604082015260c0606082015260006122f760c0830186611d63565b82810360808401526123098186611d63565b91505061231960a083018461223a565b979650505050505050565b6000806040838503121561233757600080fd5b61234083611cc7565b915061234e60208401611cc7565b90509250929050565b600080600080600060a0868803121561236f57600080fd5b61237886611cc7565b945061238660208701611cc7565b9350604086013592506060860135915060808601356001600160401b038111156123af57600080fd5b61204b88828901611dfe565b6000806000606084860312156123d057600080fd5b83356001600160401b03808211156123e757600080fd5b6123f387838801611dfe565b9450602086013591508082111561240957600080fd5b61241587838801611dfe565b9350604086013591508082111561242b57600080fd5b5061243886828701611dfe565b9150509250925092565b600181811c9082168061245657607f821691505b60208210810361247657634e487b7160e01b600052602260045260246000fd5b50919050565b601f8211156124c257600081815260208120601f850160051c810160208610156124a35750805b601f850160051c820191505b818110156116d8578281556001016124af565b505050565b81516001600160401b038111156124e0576124e0611dbc565b6124f4816124ee8454612442565b8461247c565b602080601f83116001811461252957600084156125115750858301515b600019600386901b1c1916600185901b1785556116d8565b600085815260208120601f198616915b8281101561255857888601518255948401946001909101908401612539565b50858210156125765787850151600019600388901b60f8161c191681555b5050505050600190811b01905550565b6020808252602e908201527f455243313135353a2063616c6c6572206973206e6f7420746f6b656e206f776e60408201526d195c881bdc88185c1c1c9bdd995960921b606082015260800190565b634e487b7160e01b600052603260045260246000fd5b634e487b7160e01b600052601160045260246000fd5b600060018201612612576126126125ea565b5060010190565b600060ff821660ff810361262f5761262f6125ea565b60010192915050565b80820180821115610526576105266125ea565b60208082526025908201527f455243313135353a207472616e7366657220746f20746865207a65726f206164604082015264647265737360d81b606082015260800190565b6020808252602a908201527f455243313135353a20696e73756666696369656e742062616c616e636520666f60408201526939103a3930b739b332b960b11b606082015260800190565b6040815260006126ed6040830185612122565b82810360208401526126ff8185612122565b95945050505050565b6001600160a01b03868116825285166020820152604081018490526060810183905260a06080820181905260009061231990830184611d63565b60006020828403121561275457600080fd5b8151611d4381611d0d565b600060033d11156127785760046000803e5060005160e01c5b90565b600060443d10156127895790565b6040516003193d81016004833e81513d6001600160401b0381602484011181841117156127b857505050505090565b82850191508151818111156127d05750505050505090565b843d87010160208285010111156127ea5750505050505090565b6127f960208286010187611dd2565b509095945050505050565b60208082526028908201527f455243313135353a204552433131353552656365697665722072656a656374656040820152676420746f6b656e7360c01b606082015260800190565b6001600160a01b0386811682528516602082015260a06040820181905260009061287890830186612122565b828103606084015261288a8186612122565b9050828103608084015261289e8185611d63565b9897505050505050505056fea26469706673582212201d4792a846f86f5c772f8c6fcffdb9fdbd6a3bca34b668082dfafc17d15f9b3a64736f6c6343000814003368747470733a2f2f697066732e696f2f697066732f6261666b726569657463726d68626d62757467676c6b673467326d673264657035623464336e67646b627465346e33733533727a7278776968746968747470733a2f2f697066732e696f2f697066732f62616679626569687972353435347834346b366d74686c6962767a767768657a67716c357073323563346c37656764346466346667346a7a78776d",
  "devdoc": {
    "events": {
      "ApprovalForAll(address,address,bool)": {
        "details": "Emitted when `account` grants or revokes permission to `operator` to transfer their tokens, according to `approved`."
      },
      "TransferBatch(address,address,address,uint256[],uint256[])": {
        "details": "Equivalent to multiple {TransferSingle} events, where `operator`, `from` and `to` are the same for all transfers."
      },
      "TransferSingle(address,address,address,uint256,uint256)": {
        "details": "Emitted when `value` tokens of token type `id` are transferred from `from` to `to` by `operator`."
      },
      "URI(string,uint256)": {
        "details": "Emitted when the URI for token type `id` changes to `value`, if it is a non-programmatic URI. If an {URI} event was emitted for `id`, the standard https://eips.ethereum.org/EIPS/eip-1155#metadata-extensions[guarantees] that `value` will equal the value returned by {IERC1155MetadataURI-uri}."
      }
    },
    "kind": "dev",
    "methods": {
      "balanceOf(address,uint256)": {
        "details": "See {IERC1155-balanceOf}. Requirements: - `account` cannot be the zero address."
      },
      "balanceOfBatch(address[],uint256[])": {
        "details": "See {IERC1155-balanceOfBatch}. Requirements: - `accounts` and `ids` must have the same length."
      },
      "isApprovedForAll(address,address)": {
        "details": "See {IERC1155-isApprovedForAll}."
      },
      "safeBatchTransferFrom(address,address,uint256[],uint256[],bytes)": {
        "details": "See {IERC1155-safeBatchTransferFrom}."
      },
      "safeTransferFrom(address,address,uint256,uint256,bytes)": {
        "details": "See {IERC1155-safeTransferFrom}."
      },
      "setApprovalForAll(address,bool)": {
        "details": "See {IERC1155-setApprovalForAll}."
      },
      "supportsInterface(bytes4)": {
        "details": "See {IERC165-supportsInterface}."
      },
      "uri(uint256)": {
        "details": "See {IERC1155MetadataURI-uri}. This implementation returns the same URI for *all* token types. It relies on the token type ID substitution mechanism https://eips.ethereum.org/EIPS/eip-1155#metadata[defined in the EIP]. Clients calling this function must replace the `\\{id\\}` substring with the actual token type ID."
      }
    },
    "version": 1
  },
  "userdoc": {
    "kind": "user",
    "methods": {},
    "version": 1
  },
  "storageLayout": {
    "storage": [
      {
        "astId": 25,
        "contract": "contracts/UrbanOdyssey.sol:UrbanOdyssey",
        "label": "_balances",
        "offset": 0,
        "slot": "0",
        "type": "t_mapping(t_uint256,t_mapping(t_address,t_uint256))"
      },
      {
        "astId": 31,
        "contract": "contracts/UrbanOdyssey.sol:UrbanOdyssey",
        "label": "_operatorApprovals",
        "offset": 0,
        "slot": "1",
        "type": "t_mapping(t_address,t_mapping(t_address,t_bool))"
      },
      {
        "astId": 33,
        "contract": "contracts/UrbanOdyssey.sol:UrbanOdyssey",
        "label": "_uri",
        "offset": 0,
        "slot": "2",
        "type": "t_string_storage"
      },
      {
        "astId": 2303,
        "contract": "contracts/UrbanOdyssey.sol:UrbanOdyssey",
        "label": "deployer",
        "offset": 0,
        "slot": "3",
        "type": "t_address"
      },
      {
        "astId": 2307,
        "contract": "contracts/UrbanOdyssey.sol:UrbanOdyssey",
        "label": "tokenURIs",
        "offset": 0,
        "slot": "4",
        "type": "t_mapping(t_uint256,t_string_storage)"
      },
      {
        "astId": 2312,
        "contract": "contracts/UrbanOdyssey.sol:UrbanOdyssey",
        "label": "players",
        "offset": 0,
        "slot": "5",
        "type": "t_mapping(t_address,t_struct(Player)2282_storage)"
      },
      {
        "astId": 2316,
        "contract": "contracts/UrbanOdyssey.sol:UrbanOdyssey",
        "label": "isRegistered",
        "offset": 0,
        "slot": "6",
        "type": "t_mapping(t_address,t_bool)"
      },
      {
        "astId": 2321,
        "contract": "contracts/UrbanOdyssey.sol:UrbanOdyssey",
        "label": "locations",
        "offset": 0,
        "slot": "7",
        "type": "t_mapping(t_uint256,t_struct(Location)2294_storage)"
      },
      {
        "astId": 1806,
        "contract": "contracts/UrbanOdyssey.sol:UrbanOdyssey",
        "label": "locationCounter",
        "offset": 0,
        "slot": "8",
        "type": "t_uint256"
      }
    ],
    "types": {
      "t_address": {
        "encoding": "inplace",
        "label": "address",
        "numberOfBytes": "20"
      },
      "t_bool": {
        "encoding": "inplace",
        "label": "bool",
        "numberOfBytes": "1"
      },
      "t_enum(Faction)2297": {
        "encoding": "inplace",
        "label": "enum Structs.Faction",
        "numberOfBytes": "1"
      },
      "t_mapping(t_address,t_bool)": {
        "encoding": "mapping",
        "key": "t_address",
        "label": "mapping(address => bool)",
        "numberOfBytes": "32",
        "value": "t_bool"
      },
      "t_mapping(t_address,t_mapping(t_address,t_bool))": {
        "encoding": "mapping",
        "key": "t_address",
        "label": "mapping(address => mapping(address => bool))",
        "numberOfBytes": "32",
        "value": "t_mapping(t_address,t_bool)"
      },
      "t_mapping(t_address,t_struct(Player)2282_storage)": {
        "encoding": "mapping",
        "key": "t_address",
        "label": "mapping(address => struct Structs.Player)",
        "numberOfBytes": "32",
        "value": "t_struct(Player)2282_storage"
      },
      "t_mapping(t_address,t_uint256)": {
        "encoding": "mapping",
        "key": "t_address",
        "label": "mapping(address => uint256)",
        "numberOfBytes": "32",
        "value": "t_uint256"
      },
      "t_mapping(t_uint256,t_mapping(t_address,t_uint256))": {
        "encoding": "mapping",
        "key": "t_uint256",
        "label": "mapping(uint256 => mapping(address => uint256))",
        "numberOfBytes": "32",
        "value": "t_mapping(t_address,t_uint256)"
      },
      "t_mapping(t_uint256,t_string_storage)": {
        "encoding": "mapping",
        "key": "t_uint256",
        "label": "mapping(uint256 => string)",
        "numberOfBytes": "32",
        "value": "t_string_storage"
      },
      "t_mapping(t_uint256,t_struct(Location)2294_storage)": {
        "encoding": "mapping",
        "key": "t_uint256",
        "label": "mapping(uint256 => struct Structs.Location)",
        "numberOfBytes": "32",
        "value": "t_struct(Location)2294_storage"
      },
      "t_string_storage": {
        "encoding": "bytes",
        "label": "string",
        "numberOfBytes": "32"
      },
      "t_struct(Location)2294_storage": {
        "encoding": "inplace",
        "label": "struct Structs.Location",
        "members": [
          {
            "astId": 2284,
            "contract": "contracts/UrbanOdyssey.sol:UrbanOdyssey",
            "label": "registeredBy",
            "offset": 0,
            "slot": "0",
            "type": "t_address"
          },
          {
            "astId": 2286,
            "contract": "contracts/UrbanOdyssey.sol:UrbanOdyssey",
            "label": "level",
            "offset": 20,
            "slot": "0",
            "type": "t_uint8"
          },
          {
            "astId": 2288,
            "contract": "contracts/UrbanOdyssey.sol:UrbanOdyssey",
            "label": "placeName",
            "offset": 0,
            "slot": "1",
            "type": "t_string_storage"
          },
          {
            "astId": 2290,
            "contract": "contracts/UrbanOdyssey.sol:UrbanOdyssey",
            "label": "placeType",
            "offset": 0,
            "slot": "2",
            "type": "t_string_storage"
          },
          {
            "astId": 2293,
            "contract": "contracts/UrbanOdyssey.sol:UrbanOdyssey",
            "label": "faction",
            "offset": 0,
            "slot": "3",
            "type": "t_enum(Faction)2297"
          }
        ],
        "numberOfBytes": "128"
      },
      "t_struct(Player)2282_storage": {
        "encoding": "inplace",
        "label": "struct Structs.Player",
        "members": [
          {
            "astId": 2270,
            "contract": "contracts/UrbanOdyssey.sol:UrbanOdyssey",
            "label": "verifiedPlaces",
            "offset": 0,
            "slot": "0",
            "type": "t_uint256"
          },
          {
            "astId": 2272,
            "contract": "contracts/UrbanOdyssey.sol:UrbanOdyssey",
            "label": "registeredPlaces",
            "offset": 0,
            "slot": "1",
            "type": "t_uint256"
          },
          {
            "astId": 2274,
            "contract": "contracts/UrbanOdyssey.sol:UrbanOdyssey",
            "label": "isVerified",
            "offset": 0,
            "slot": "2",
            "type": "t_bool"
          },
          {
            "astId": 2276,
            "contract": "contracts/UrbanOdyssey.sol:UrbanOdyssey",
            "label": "name",
            "offset": 0,
            "slot": "3",
            "type": "t_string_storage"
          },
          {
            "astId": 2278,
            "contract": "contracts/UrbanOdyssey.sol:UrbanOdyssey",
            "label": "hometown",
            "offset": 0,
            "slot": "4",
            "type": "t_string_storage"
          },
          {
            "astId": 2281,
            "contract": "contracts/UrbanOdyssey.sol:UrbanOdyssey",
            "label": "faction",
            "offset": 0,
            "slot": "5",
            "type": "t_enum(Faction)2297"
          }
        ],
        "numberOfBytes": "192"
      },
      "t_uint256": {
        "encoding": "inplace",
        "label": "uint256",
        "numberOfBytes": "32"
      },
      "t_uint8": {
        "encoding": "inplace",
        "label": "uint8",
        "numberOfBytes": "1"
      }
    }
  }
}